{
    "_format": "hh-sol-artifact-1",
    "contractName": "Counter",
    "sourceName": "contracts/Counter.sol",
    "abi": [
        {
            "inputs": [],
            "name": "get",
            "outputs": [
                {
                    "internalType": "uint256",
                    "name": "",
                    "type": "uint256"
                }
            ],
            "stateMutability": "view",
            "type": "function"
        },
        {
            "inputs": [],
            "name": "increase",
            "outputs": [],
            "stateMutability": "nonpayable",
            "type": "function"
        },
        {
            "inputs": [],
            "name": "value",
            "outputs": [
                {
                    "internalType": "uint256",
                    "name": "",
                    "type": "uint256"
                }
            ],
            "stateMutability": "view",
            "type": "function"
        }
    ],
    "bytecode": "0x608060405234801561001057600080fd5b50610196806100206000396000f3fe608060405234801561001057600080fd5b50600436106100415760003560e01c80633fa4f245146100465780636d4ce63c14610064578063e8927fbc14610082575b600080fd5b61004e61008c565b60405161005b91906100cd565b60405180910390f35b61006c610092565b60405161007991906100cd565b60405180910390f35b61008a61009b565b005b60005481565b60008054905090565b6000808154809291906100ad90610117565b9190505550565b6000819050919050565b6100c7816100b4565b82525050565b60006020820190506100e260008301846100be565b92915050565b7f4e487b7100000000000000000000000000000000000000000000000000000000600052601160045260246000fd5b6000610122826100b4565b91507fffffffffffffffffffffffffffffffffffffffffffffffffffffffffffffffff821415610155576101546100e8565b5b60018201905091905056fea26469706673582212207f2958ed1e4e4fe6e4010a4c01b433ee9ec6559cc2d4ad8988da21b5f85b4d2a64736f6c63430008090033",
    "linkReferences": {},
    "deployedLinkReferences": {}
}